:020000040000FA
:020000005A287C
:08000800FF00030EFE0071224F
:10001000831203130C1C5428831203131010831231
:1000200003130C107D2292227117701D4128640069
:10003000831603130C308100FD0B41280330FD00B3
:100040007708023E0E392038F700BA2200198529B8
:10005000D22283120313770884000008E23C840A4A
:100060000008031C000F073C031C9029492283123F
:100070000313770884000008840A000403197A290E
:10008000F1178312031310108312031358308E00DC
:1000900042308F00831603130C140B178B17831237
:1000A00003130C101014701477227E0E8300FF0EC1
:1000B0007F0E0900031E6F29831203139430D000B2
:1000C0001130D1000A30D6000030D7006F288312DB
:1000D00003133430D0000830D100D601D701831289
:1000E00003130511920195019301831603139201E5
:1000F0008316031361308F008312031385010F30C1
:100100009900831603139F0112309F000A30850067
:10011000831203130516640083120313173098002B
:10012000831603130F3081008312031310309000E5
:10013000F001F10183120313F4012030F7000330C2
:10014000FD00DE21EA21F621831203131030E000C6
:10015000831203139030E1008312031310108312F3
:10016000031358308E0042308F00831603130C1493
:100170000B178B17831203130C101014F014831237
:1001800003131E30D2000330D30080240A30FB005A
:10019000711FC8287113F11CDD28F61CDD28FB0B2C
:1001A000E628C1217624711FD3287113F118D328B2
:1001B00083120313D8017B24E428711DE428761DE3
:1001C000E428FB0BE628E8280A30FB008B24C8282B
:1001D0007624711FE92871137119E928831203131A
:1001E000D8017B24F201F30183120313831203135A
:1001F0001030FA00203084008001840AFA0BFC28B9
:10020000831203130930FA00323084008001840A1B
:10021000FA0B06290F30BD000822102283160313A3
:100220000515F9309200831203130C3095009301E9
:10023000831603138C10831203138C100730920063
:100240008C1C20298316031305117314F0107015EC
:10025000701C2829701083120313D00B3329D10886
:1002600003199B29D103711C36295F29761C5F294C
:10027000F61C4D29831203131330B0070318B10A7B
:1002800030082B3C3108031C310F073C03184C2964
:100290002B30B0000730B1005C29761D5F29831236
:1002A00003130F30B0020030031C0130B1020318F9
:1002B0005B29B001B1015C29701921225F29F11F6E
:1002C0006D297208F500F113E622292342236A23DF
:1002D0007F23F31F6D2937225E24AD242829831242
:1002E00003137414831203130530D2000130D300BA
:1002F0008024A72983120313F414831203130530F7
:10030000D2000230D3008024A72983120313F417EC
:10031000831203131430D2000130D3008024A729A4
:10032000831203137415831203131430D2000230A6
:10033000D3008024A729672883120313741683121D
:1003400003131430D2000430D3008024A7293322B1
:1003500064008312031317309800831603130F30C1
:1003600081007011F017831203130511920195019A
:100370009301831603139201701CBC2970108B2407
:10038000BC29831203138030E2000030E3001030F8
:10039000E400712283120313620802229A0083127E
:1003A00003136308831603139B006622831203134F
:1003B000E20AE30AE40BCA29772208008312031336
:1003C00030308400003002228000840A0130022292
:1003D000800008008312031344308400023002229C
:1003E0008000840A03300222800008008312031375
:1003F0003B308400043002228000840A053002224F
:1004000080000800831603139B001C141A080800C0
:100410008316031310309B00FF309A006F30172AA9
:100420008316031390309B0055309A006F30FA000A
:1004300071226622831603139B0AFA0B192A77226C
:10044000080083120313303084000030562A8312D0
:100450000313443084000230562A831203133B30C6
:1004600084000430562A743084000F30562A8312D8
:10047000031342303E2A8312031344308400831254
:100480000313E10AE10AE11B472A9030E100610809
:10049000562A831203137708840083120313E00A99
:1004A000E00AE01F552A1030E00060087122831630
:1004B00003139B0000089A006622831603139B0A0D
:1004C000840A00089A006622772208008316031324
:1004D0001C1555309D00AA309D009C149C186E2A56
:1004E0000800831203138B138B1B742A08008312DA
:1004F00003138B178B1F7A2A08008312031385308E
:100500009F009F149F18822A831603131E088312CC
:100510000313C600831203131E0803398312031347
:10052000C70008007108F600F110711171108312F4
:10053000031346086C3C4708031C470F023C031C8E
:10054000AA2A4608D13C4708031C470F013C031C5C
:10055000B22A080083120313F61CD801D80AF1143A
:100560007114080083120313761DD801D80A71157F
:10057000711408008312031377088400840A85121B
:100580000512C6228403C622051608000830FA00A8
:1005900003108001800D851685128519800AFA0BDB
:1005A000CA2A08008312031377088400840A7F3064
:1005B00080058403F83080050330FA000310840AB4
:1005C000800C8403800CFA0BDF2A080083120313CB
:1005D0007210F2103208B6003308B70077088400B2
:1005E00000083002B2003108B300840A0008031C7E
:1005F000000FB302031C012B32083304031D092B27
:100600000A2BB3093209013EB2000318B30A72146F
:100610000A2BF21483120313D608031D0800D7080F
:10062000031D0800BD0303191A2B7218BE0AF21825
:10063000BF0A08003E083F020318202B3224242B57
:100640003F08BE02031C4824BE01BF010F30BD009D
:10065000080083120313F3180800B308031D0800F1
:100660007218352BF218382B3A2B75183C2B3A2B75
:10067000F5183C2BB401B501320834070318FF30DC
:10068000B4000800831203137211F21172133808B8
:10069000B90032083602B8000318532B3809013E5E
:1006A0000318FF30B80032083602031C5A2B031D12
:1006B0005C2B080072155D2BF215F31C652B3808B6
:1006C0003A020318652B3808BA003808C03C031CEE
:1006D00072170800831203137212F212751D732B26
:1006E000721D0800772BF51D0800F21D0800380860
:1006F0003902031C7D2BF216080072160800F31352
:10070000F31C852B721F852BF72B272283120313D3
:100710004408C0004508C100721CB32BB308031D78
:10072000F72B3208403C031CF72B320CDE00DE0CAA
:100730005E0C1F39031906302424340CDE00DE0C55
:100740005E0C1F39031902302424721DAD2B380EA4
:100750000F39031908302424EC2B380E0F390319F4
:1007600004300D24EC2BF21CEC2B32083B02330836
:10077000031C330F3C02031C002CB308031D002C88
:100780003208403C031CE22B320CDE00DE0C5E0C17
:100790001F39031903300D24340CDE00DE0C5E0C0F
:1007A0001F39031902300D24721DDC2B380E0F394E
:1007B000031908300D24EC2B380E0F3903190430BF
:1007C0002424EC2B831203130310C00DC10D8312DC
:1007D00003130310C00DC10D831203134008C200A0
:1007E0004108C3007311F310F315F31708008312C7
:1007F0000313C201C3017315F310F311F3170800BB
:1008000083120313FF30C2000330C3007311F314CB
:10081000F311F31708000130102CDE0072195E0D81
:1008200083120313C0070318C10A4008FF3C4108A4
:10083000031C410F033C031808007F08C000030895
:10084000C10008000130272CDE0072195E0D8312F2
:100850000313C0020130031CC10203180800C001C9
:10086000C1010800013083120313C4020130031CCC
:10087000C502031C432C4408203C4508031C450FBB
:10088000003C031C08002030C4000030C5000800F4
:10089000013083120313C40701300318C50703187E
:1008A000592C4408FF3C4508031C450F033C031822
:1008B00008008030C4000030C50008008312031314
:1008C0004208DE004308DF005E0E30390C38831228
:1008D0000313950083120313DF0CDE0CDF0C5E0C98
:1008E0008312031393000800701A7B2C83120313E6
:1008F0000514701608008312031305107012080007
:10090000831203135208FC005308D5000230D400B0
:10091000F0117B240800F019962CFC0B0800F01550
:10092000831203130230D400D40A982C701EA22C18
:10093000762483120313D40B0800831203130230AE
:10094000D400D40A7B2483120313D40B080083122F
:100950000313D50B8F2C80240800F218C32C8312AC
:100960000313D608031DB82CD708031DB82CC12CBF
:100970000130D60203180800D70203180800D60178
:0A098000D701762408007B2408004C
:02400E00DC389C
:10420000EA00050048000000240001000000000052
:104210000000000000000000000000000000FF009F
:10422000000000000000000000000000000000008E
:10423000000000000000000000000000000000007E
:10424000000000000000000000000000000000006E
:10425000000000000000000000000000000000005E
:10426000000000000000000000000000000000004E
:10427000000000000000000000000000000000003E
:10428000000000000000000000000000000000002E
:10429000000000000000000000000000000000001E
:1042A000000000000000000000000000000000000E
:1042B00000000000000000000000000000000000FE
:1042C00000000000000000000000000000000000EE
:1042D00000000000000000000000000000000000DE
:1042E00000000000000000000000000000000000CE
:1042F00000000000000000000000000000000000BE
:10430000C000050050000000240001000000000073
:10431000000000000000000000000000000000009D
:10432000FF00FF00FF00FF00FF00FF00FF00FF0095
:10433000FF00FF00FF00FF00FF00FF00FF00FF0085
:10434000FF00FF00FF00FF00FF00FF00FF00FF0075
:10435000FF00FF00FF00FF00FF00FF00FF00FF0065
:10436000FF00FF00FF00FF00FF00FF00FF00FF0055
:10437000FF00FF00FF00FF00FF00FF00FF00FF0045
:10438000FF00FF00FF00FF00FF00FF00FF00FF0035
:10439000FF00FF00FF00FF00FF00FF00FF00FF0025
:1043A000FF00FF00FF00FF00FF00FF00FF00FF0015
:1043B000FF00FF00FF00FF00FF00FF00FF00FF0005
:1043C000FF00FF00FF00FF00FF00FF00FF00FF00F5
:1043D000FF00FF00FF00FF00FF00FF00FF00FF00E5
:1043E000FF00FF00FF00FF00FF00FF00FF00FF00D5
:1043F000FF00FF00FF00FF00FF00FF00FF00FF00C5
:00000001FF
